:10000000C0EF14F00000000000EF03F0000000005B
:0A0010000000000000000000F3D71C
:10001C000B820BAE18EF00F00368026801680068F1
:08002C000A360232FF0E120039
:0E003400026A016A006A086A036A000E12007E
:080042000AAE029E000E12003E
:10004A000B840BAE30EF00F0010E036E026A016AF8
:0A005A00006A0A360232FF0E12009F
:0E0064000401B6B102D0899801D0898812003B
:0E0072000401B6B102D08D9201D08D82120031
:0E0080000401B6B102D08B9801D08B8812001B
:0E008E000401B6B102D0899201D0898212001D
:0E009C000401B6B102D08B9E01D08B8E1200F3
:0E00AA000401B6B102D08B9801D08B881200F1
:0E00B8000401B6B102D08B9A01D08B8A1200DF
:0E00C6000401B6B102D08A9201D08A821200E3
:1000D4000B800BAE76EF00F0026A0AAEFF0E026EE2
:0C00E400016E006E0A360232FF0E1200A0
:0E00F0000401B6B102D08B9201D08B821200B7
:0E00FE000401B6B102D08B9A01D08B8A120099
:0E010C000401B6B102D08D9001D08D8012009A
:0E011A000401B6B102D08B9C01D08B8C120078
:0E0128000401B6B102D08B9601D08B86120076
:0E0136000401B6B102D08A9001D08A80120076
:0E0144000401B6B102D08B9E01D08B8E12004A
:0E0152000401B6B102D08B9801D08B88120048
:0E0160000401B6B102D08B9601D08B8612003E
:0E016E000401B6B102D08B9601D08B86120030
:0E017C000401B6B102D08F9001D08F80120026
:0E018A000401B6B102D08B9801D08B88120010
:0E0198000401B6B102D08F9201D08F82120006
:0E01A6000401B6B102D08A9401D08A841200FE
:0E01B4000401B6B102D08F9401D08F841200E6
:0E01C2000401B6B102D08B9C01D08B8C1200D0
:0E01D0000401B6B102D08B9601D08B861200CE
:0E01DE000401B6B102D08B9401D08B841200C4
:0E01EC000401B6B102D08B9801D08B881200AE
:0E01FA000401B6B102D08B9A01D08B8A12009C
:0E0208000401B6B102D08D9401D08D84120095
:0E0216000401B6B102D0899401D0898412008F
:0E0224000401B6B102D08D9601D08D86120075
:0E0232000401B6B102D08B9601D08B8612006B
:0E0240000401B6B102D0899001D0898012006D
:0E024E000401B6B102D08B9001D08B8012005B
:08025C000B6A0B86FF0E120075
:0E0264000401B6B102D08B9601D08B86120039
:0E0272000401B6B102D08B9801D08B88120027
:100280000CB082EF01F00CA228EF02F00E6A000E13
:10029000026499EF01F0F00E0214D8A464EF01F0AB
:1002A000023A01380F0B02260138F00B016E0038BC
:1002B0000F0B01260038F00B006E08380F0B0026DC
:1002C0000838F00B086E0E84D89002BE7DEF01F066
:1002D00008360036013602360E2A02BE7DEF01F0E6
:1002E00008360036013602360E2A02BE7DEF01F0D6
:1002F00008360036013602360E2A0E5003641EEF11
:1003000002F0035E0BBC08AE23EF02F0D880800E33
:1003100008640030000E002201220222D8A023EF40
:1003200002F0023201320032034A28EF02F023EFDA
:1003300002F001C002F000C001F008C000F0086A3D
:10034000000E0E860264D0EF01F0F00E0214D8A465
:10035000B8EF01F0023A01380F0B02260138F00B1A
:10036000016E00380F0B01260038F00B006E0E8472
:10037000D89002BE7DEF01F00036013602360E2A1B
:1003800002BE7DEF01F00036013602360E2A02BEB3
:100390007DEF01F00036013602360E2A7DEF01F0C6
:1003A00001C002F000C001F0006A000E0E960E8837
:1003B0000264FDEF01F0F00E0214D8A4E8EF01F0A2
:1003C000023A01380F0B02260138F00B016E0E8441
:1003D000D89002BE7DEF01F0013602360E2A02BE31
:1003E0007DEF01F0013602360E2A02BE7DEF01F0EC
:1003F000013602360E2A7DEF01F001C002F0016ADB
:10040000000E0E8602642DEF02F0F00E0214D8A446
:100410000CEF02F0023A0E84D89002BE7DEF01F09C
:1004200002360E2A02BE7DEF01F002360E2A02BE0F
:100430007DEF01F002360E2A7DEF01F0010E0C6E09
:1004400004DE30EF02F0020E0C6EFBDD30EF02F046
:10045000040E0C6EE3DD30EF02F0080E0C6EEADDE8
:02046000120088
:10046200F250026EF29E0500FF6A0150FE6E0050CD
:08047200FD6E02BEF28E1200C5
:0A047A00050E0D6E0D2EFED71200C8
:10048400086A096A000E07620364C7EF02F00250AB
:1004940006180A6E075003267E0ED8A058EF02F005
:1004A400035ED8B0CBEF02F05CEF02F0035ED8A09D
:1004B400CFEF02F0028E068E02C00EF001C00BF0E8
:1004C40000C00DF000500402F4CF0CF001500502FE
:1004D400F4CF00F0F3CF08F00402F3500C26F450EC
:1004E4000822000E00220D500502F3500C26F45091
:1004F4000822000E002202500402F3500826F45091
:10050400002202500502016A000E0122F350002667
:10051400F45001220D500602F3500826F450002234
:10052400026A000E012202220B500602F35000263A
:10053400F4500122000E02220E500602F35001264E
:10054400F450022202BEAFEF02F008360036013644
:1005540002360306D8B4CFEF02F0C2EF02F0D8801F
:10056400800E08640030000E002201220222D8A06E
:10057400C2EF02F0023201320032034ACBEF02F042
:100584000AAE029E000ED1EF02F0010E51DDD1EF52
:1005940002F0020E41DDD1EF02F0040E54DD120030
:1005A40003500718D8A4E6EF02F002500618D8A4A6
:1005B400E6EF02F001500518D8A4E6EF02F000506F
:0E05C4000418D8B4D8841200D8941200120083
:1005D200010ECD6E9E90C10ECF6E800ECE6E9D80AE
:0605E200C00EF26E1200D3
:1006000000C01CF001C01BF002C01AF003C019F0BA
:1006100004C018F005C017F006C016F007C015F0AA
:10062000E1CF1FF0E2CF20F0E9CF1DF0EACF1EF0BE
:100630009EA00CD0290E0401B76F040EB86FF7EC22
:1006400013F09E90C10ECF6E800ECE6E1CC000F0D7
:100650001BC001F01AC002F019C003F018C004F06A
:1006600017C005F016C006F015C007F01DC0E9FF61
:0E0670001EC0EAFF1FC0E1FF20C0E2FF110024
:10067E00025006180E6E086A096A0B6A0350076468
:10068E0032EF04F006500A6E068E028E03500B6E89
:10069E000750036E000E0B6482EF03F00B50075EE3
:1006AE00D8B423EF04F0070E0764F1EF03F0075EF2
:1006BE0000C008F001C000F002C001F0026A074E4F
:1006CE0023EF04F00764C6EF03F0075E00C008F0E6
:1006DE0001C000F0016A074E23EF04F00764A4EF97
:1006EE0003F0075E00C008F0006A074E23EF04F027
:1006FE0007648BEF03F00AC002F005C001F004C0DE
:10070E0000F0086A4EEF05F0030E076496EF03F053
:10071E00075E08380F0B086E074E23EF04F0D890D3
:10072E000832074E23EF04F0D8900832074E23EF1D
:10073E0004F0D890083223EF04F0030E0764B5EFEF
:10074E0003F0075E08380F0B086E0038F00B082612
:10075E0000380F0B006E074E23EF04F0D8900032D6
:10076E000832074E23EF04F0D89000320832074EBD
:10077E0023EF04F0D8900032083223EF04F0030E7A
:10078E000764DDEF03F0075E08380F0B086E0038C4
:10079E00F00B082600380F0B006E0138F00B002608
:1007AE0001380F0B016E074E23EF04F0D890013283
:1007BE0000320832074E23EF04F0D8900132003297
:1007CE000832074E23EF04F0D8900132003208327F
:1007DE0023EF04F0030E07640EEF04F0075E0838F3
:1007EE000F0B086E0038F00B082600380F0B006E4A
:1007FE000138F00B002601380F0B016E0238F00B9A
:10080E00012602380F0B026E074E23EF04F0D8902C
:10081E000232013200320832074E23EF04F0D89034
:10082E000232013200320832074E23EF04F0D89024
:10083E000232013200320832096A000E0EAE17EF94
:10084E0005F0081E001E011E021E082A00220122AB
:10085E00022217EF05F00750D8A438EF04F04EEF40
:10086E0005F0096A02C00AF0028E068E0750035C7C
:10087E00076ED8B40AEF05F0070E0764D8EF04F040
:10088E00075E0450096E0550046E0650056E066A2A
:10089E00074E0AEF05F0070E0764ADEF04F0075E92
:1008AE000450096E0550046E056A074E0AEF05F0F6
:1008BE00070E07648BEF04F0075E0450096E046A9E
:1008CE00074E0AEF05F0070E076472EF04F00AC038
:1008DE0002F04EEF05F0030E07647DEF04F0075EA5
:1008EE0009380F0B096E074E0AEF05F0D890093242
:1008FE00074E0AEF05F0D8900932074E0AEF05F0C1
:10090E00D89009320AEF05F0030E07649CEF04F04D
:10091E00075E09380F0B096E0438F00B09260438F0
:10092E000F0B046E074E0AEF05F0D8900432093211
:10093E00074E0AEF05F0D89004320932074E0AEF3F
:10094E0005F0D890043209320AEF05F0030E076461
:10095E00C4EF04F0075E09380F0B096E0438F00B74
:10096E00092604380F0B046E0538F00B04260538E3
:10097E000F0B056E074E0AEF05F0D89005320432C4
:10098E000932074E0AEF05F0D890053204320932CB
:10099E00074E0AEF05F0D8900532043209320AEFFD
:1009AE0005F0030E0764F5EF04F0075E09380F0B30
:1009BE00096E0438F00B092604380F0B046E053847
:1009CE00F00B042605380F0B056E0638F00B0526C6
:1009DE0006380F0B066E074E0AEF05F0D89006325A
:1009EE00053204320932074E0AEF05F0D89006326E
:1009FE00053204320932074E0AEF05F0D89006325E
:100A0E00053204320932086A000E0EAE17EF05F0F9
:100A1E00091E041E051E061E092A04220522062290
:100A2E0009500826045000220550012206500222C9
:100A3E000EBE2EEF05F0D8A03DEF05F002320132CA
:100A4E0000320832033E3DEF05F048EF05F0D8B016
:100A5E0042EF05F0000E081E001E011E021E082A9F
:100A6E000022012202220A7E42EF05F0010E0C6ED8
:100A7E0000DC50EF05F0020E0C6E40EC01F050EF72
:100A8E0005F0040E0C6E0EEC00F050EF05F0000EAB
:040A9E000C6E1200C8
:100AA2000A6A0350D8A40A800750D8A40A820A50BE
:100AB200D8B4B4EF05F0030AD8B46DEF05F00AB06C
:100AC20068EF05F006AEB2EF05F0B0EF05F002AE4A
:100AD200B0EF05F0B2EF05F00250800B0A6E029EF5
:100AE2000650800B069E0A18D8B47EEF05F00A5015
:100AF200D8B4B0EF05F0B2EF05F00750035CD8B4FC
:100B020088EF05F0D8A0A4EF05F0AAEF05F0065093
:100B1200025CD8B492EF05F0D8A0A4EF05F0AAEFDA
:100B220005F00550015CD8B49CEF05F0D8A0A4EF05
:100B320005F0AAEF05F00450005CD8B4B4EF05F05C
:100B4200D8B0AAEF05F00A52D8B4B2EF05F0B0EF70
:100B520005F00A52D8B4B0EF05F0B2EF05F0D88034
:0E0B62001200D8901200D880D8841200120021
:100B70000450000A12E10550000A0FE10650000A75
:100B80000CE10750000A09E1FF0E006EFF0E016E36
:100B90007F0E026EFF0E036EA8D0086A096A075026
:100BA000D8B463EF06F00350D8B468EF06F00250F3
:100BB00006180A6E028E068E0E6A02C008F001C088
:100BC0000CF000C00DF004500D5E0550D8A0053C9F
:100BD0000C5E0650D8A0063C085E086A0C6A0D6AD6
:100BE000D8A0FAEF05F0D890023201320032083274
:100BF000010E0E6E0750035ED8A007EF06F07E0EC2
:100C00000E240326D8B06DEF06F00DEF06F07E0E31
:100C10000E240326D8A072EF06F0180E0B6E0D36C8
:100C20000C3608360036013602360E360450005EA9
:100C30000550D8A0053C015E0650D8A0063C025ED7
:100C400006340E120EA028EF06F00D8033EF06F0EA
:100C5000045000260550D8B0053C01260650D8B0F7
:100C6000062802260D900B2E0FEF06F059EF06F026
:100C7000D8900036013602360E360450005E05501C
:100C8000D8A0053C015E0650D8A0063C025E0634A2
:100C90000E10010B0D26D8B00C2AD8B4082AD8A4FF
:100CA00059EF06F008320C320D32032AD8B46DEF3A
:100CB00006F00AAE089E0850026E0C50016E0D50F0
:100CC000006E75EF06F0010E2EEC01F075EF06F0E8
:100CD000020E1AEC00F075EF06F0040E0EEC00F0B8
:0C0CE00075EF06F0080E25EC00F0120085
:100CEC000B6A0C6A0A6A086A0350D8B4FEEF06F065
:100CFC00028E9E0E035E03BE89EF06F0D8B489EF18
:100D0C0006F0EEEF06F0036C080E035CD8A0BBEF08
:100D1C0006F0036E083600C008F001C000F002C0F7
:100D2C0001F0026A080E035CD8A0BBEF06F0036E5C
:100D3C00083600C008F001C000F0016A080E035C20
:100D4C00D8A0BBEF06F0036E083600C008F0006AAE
:100D5C00080E035CD8A0BBEF06F0036E0836086AD9
:100D6C000350D8A4D890C7EF06F00350D8B4C7EFFF
:100D7C0006F0D8900232013200320832032EBFEF57
:100D8C0006F00BBC08A0D8EF06F0D8A0D8EF06F000
:100D9C00082AD8B4002AD8B4012AD8B4022A02BE30
:100DAC0002EF07F00AAEFEEF06F0021E011E001E57
:100DBC00081E082AD8B4002AD8B4012AD8B4022AAA
:100DCC00FEEF06F0026A016A006A086AFEEF06F09E
:100DDC000B800BAE08EF07F0026A0AAE08EF07F0C3
:100DEC00026E016E006E086E0A36023208EF07F0D2
:100DFC00000E0C6A09EF07F0010E0C6E6AEC00F0A5
:100E0C0009EF07F0FF0E0250036E0150026E005006
:080E1C00016E0850006E120087
:100E240098C4F6FF99C4F7FF9AC4F8FF0900F5CFF8
:100E340021F00900F5CF22F00900F5CF23F00900D5
:100E4400F5CF24F0080E04019825F66E000E9921C2
:100E5400F76E000E9A21F86E0900F5CF25F009000F
:100E6400F5CF26F00900F5CF27F00900F5CF28F0DB
:100E7400040E9825F66E000E9921F76E000E9A2145
:100E8400F86E0900F5CF7EF40900F5CF7FF4090070
:100E9400F5CF80F40900F5CF81F4180E9825F66E8D
:100EA400000E9921F76E000E9A21F86E0900F5CF15
:100EB40082F40900F5CF83F40900F5CF84F4090026
:100EC400F5CF85F41C0E9825F66E000E9921F76E69
:100ED400000E9A21F86E0900F5CF76F40900F5CFDB
:100EE40077F40900F5CF78F40900F5CF79F412000E
:100EF4000401A46BA56BA66BA76BA0C400F0A1C4EE
:100F040001F0A2C402F0A3C403F0046A056A066AED
:100F1400076AD2EC02F0000ED8A4010E006E005253
:100F240043E09CC404F09DC405F09EC406F09FC435
:100F340007F098C400F099C401F09AC402F09BC46D
:100F440003F0ADDD010ED8B0000E006E00522BE0B0
:100F540098C400F099C401F09AC402F09BC403F051
:100F6400A0C404F0A1C405F0A2C406F0A3C407F011
:100F740042EC02F098C404F099C405F09AC406F057
:100F84009BC407F03FEC03F000C098F401C099F44F
:100F940002C09AF403C09BF4010EA427000EA523FB
:100FA400A623A723BED707D0010E006E000E016E44
:100FB400026E036E08D0A4C400F0A5C401F0A6C458
:080FC40002F0A7C403F01200C3
:100FCC0059D0040199B102D0929201D092820F01B2
:100FDC00259376D0040199B102D0929801D09288D1
:100FEC006FD0040199B102D0969201D0968268D04C
:100FFC00040199B102D0949601D0948661D0040179
:10100C0099B102D0949801D094885AD0040199B126
:10101C0002D0949A01D0948A53D0040199B102D091
:10102C00949401D094844CD0040199B102D0939241
:10103C0001D0938245D0040199B102D0949E01D085
:10104C00948E3ED0040199B102D0949C01D0948C22
:10105C0037D0040199B102D0949601D0948630D047
:10106C00040199B102D0949801D0948829D0010E32
:10107C00006E28D004019851000AA3E09851010A8F
:10108C00A9E09851020AADE09851030AB1E09851D9
:10109C00040AB5E09851050AB9E09851060ABDE07A
:1010AC009851070AC1E09851080AC5E09851090AFD
:1010BC00C9E098510A0ACDE098510B0AD1E0D7D774
:0610CC00000E006E120090
:1010D20059D0040199B102D0929001D092800F01AF
:1010E200259176D0040199B102D0949001D09480D8
:1010F2006FD0040199B102D0969001D0968068D049
:10110200040199B102D0949601D0948661D0040171
:1011120099B102D0949801D094885AD0040199B11F
:1011220002D0949A01D0948A53D0040199B102D08A
:10113200949201D094824CD0040199B102D0939040
:1011420001D0938045D0040199B102D0949E01D080
:10115200948E3ED0040199B102D0949C01D0948C1B
:1011620037D0040199B102D0949601D0948630D040
:10117200040199B102D0949801D0948829D0010E2B
:10118200006E28D004019851000AA3E09851010A88
:10119200A9E09851020AADE09851030AB1E09851D2
:1011A200040AB5E09851050AB9E09851060ABDE073
:1011B2009851070AC1E09851080AC5E09851090AF6
:1011C200C9E098510A0ACDE098510B0AD1E0D7D76D
:0611D200000E006E120089
:1011D80099C49BF49AC49CF40401985315E09BC4E9
:1011E800E9FF9CC4EAFFEECF00F0EECF01F0EECFAE
:1011F80002F0EECF03F002C0E1FF03C0E2FF010EF0
:10120800E66E31EC02F013D09BC4E9FF9CC4EAFF00
:10121800EECF00F0EECF01F0EECF02F0EECF03F00C
:1012280002C0E1FF03C0E2FFE66A31EC02F0040EFF
:1012380004019B25E96E000E9C21EA6EEECF00F0BA
:10124800EECF01F0EECF02F0EECF03F002C0E1FFE7
:1012580003C0E2FF010EE66E31EC02F03DEC02F055
:10126800040E04019B25E96E000E9C21EA6EEECF68
:1012780000F0EECF01F0EECF02F0EECF03F002C0A7
:0E128800E1FF03C0E2FFE66A31EC02F0120063
:101296005DD0040199B102D0929401D092840F01DD
:1012A60025957AD0040199B102D0969601D09686FA
:1012B60073D0040199B102D0969401D096846CD073
:1012C600040199B102D0949601D0948665D00401A8
:1012D60099B102D0949801D094885ED0040199B156
:1012E60002D0949A01D0948A57D0040199B102D0C1
:1012F600989001D0988050D0040199B102D093946F
:1013060001D0938449D0040199B102D0989401D0B8
:1013160098840F01239540D0040199B102D0989288
:1013260001D098820F01239337D0040199B102D0DE
:10133600949601D0948630D0040199B102D0949845
:1013460001D0948829D0010E006E28D0040198514E
:10135600000A9FE09851010AA5E09851020AA9E007
:101366009851030AADE09851040AB1E09851050A74
:10137600B5E09851060AB9E09851070ABDE09851C0
:10138600080AC1E09851090AC7E098510A0ACDE057
:0E13960098510B0AD1E0D7D7000E006E12005E
:1013A400140E0401A025AE6F000EA121AF6F370EFD
:1013B400A025006E000EA121016E00C0B0F401C092
:1013C400B1F400C0E1FF01C0E2FFE66AE66AE66A42
:1013D400E66A040EB025E16E000EB121E26EE66A03
:1013E400E66AE66AE66A080EB025E16E000EB121EF
:1013F400E26E98C4E6FF99C4E6FF9AC4E6FF9BC474
:10140400E6FF0C0EB025E16E000EB121E26E9CC425
:1014140000F09DC401F09EC402F09FC403F09851F3
:10142400005E9951015A9A51025A9B51035A00C0C5
:10143400E6FF01C0E6FF02C0E6FF03C0E6FF0C0EB4
:10144400AE25D96E000EAF21DA6EDECF04F0DECF0A
:1014540005F0DECF06F0DECF07F004C0A2F405C02D
:10146400A3F406C0A4F407C0A5F47AC400F07BC4B6
:1014740001F07CC402F07DC403F0B8EC05F000C0B8
:10148400A6F401C0A7F402C0A8F403C0A9F4140E82
:101494000401B025E96E000EB121EA6EEECFB2F47C
:1014A400EECFB3F421DCB2C4E1FFB3C4E2FF00C069
:1014B400E6FF01C0E6FF02C0E6FF03C0E6FF010E3F
:1014C400AA6F000EAB6FAC6FAD6F9B51AD5D08E1C1
:1014D4009A51AC5D05E19951AB5D02E19851AA5D69
:1014E40070E2080EAE25D96E000EAF21DA6EDECFA3
:1014F40000F0DECF01F0DECF02F0DECF03F0A2C4B5
:1015040004F0A3C405F0A4C406F0A5C407F042EC9B
:1015140002F0A2C404F0A3C405F0A4C406F0A5C458
:1015240007F03FEC03F000C0A2F401C0A3F402C032
:10153400A4F403C0A5F400C004F001C005F002C087
:1015440006F003C007F07AC400F07BC401F07CC449
:1015540002F07DC403F0B8EC05F000C0A6F401C0AD
:10156400A7F402C0A8F403C0A9F4140E0401B02522
:10157400E96E000EB121EA6EAAC404F0ABC405F012
:101584000436049005360436049005360450EE24DF
:10159400B26F0550EE20B36F76EC06F0B2C4E1FFF3
:1015A400B3C4E2FF00C0E6FF01C0E6FF02C0E6FFED
:1015B40003C0E6FF010EAA27000EAB23AC23AD2324
:1015C40084D7080EAE25D96E000EAF21DA6EDECFB9
:1015D40000F0DECF01F0DECF02F0DECF03F0A2C4D4
:1015E40004F0A3C405F0A4C406F0A5C407F042ECBB
:1015F40002F0A2C404F0A3C405F0A4C406F0A5C478
:1016040007F03FEC03F000C0A2F401C0A3F402C051
:10161400A4F403C0A5F400C004F001C005F002C0A6
:1016240006F003C007F07AC400F07BC401F07CC468
:1016340002F07DC403F0B8EC05F000C0B2F401C0C0
:10164400B3F402C0B4F403C0B5F4B2C4A6F4B3C492
:10165400A7F4B4C4A8F4B5C4A9F4100E0401AE25CB
:10166400D96E000EAF21DA6EDECF04F0DECF05F0C6
:10167400DECF06F0DECF07F07AC400F07BC401F0C1
:101684007CC402F07DC403F0B8EC05F000C004F0A3
:1016940001C005F002C006F003C007F0B2C400F0B8
:1016A400B3C401F0B4C402F0B5C403F051EC05F0C6
:1016B400010ED8B0000E006E005221E0100E04019D
:1016C400AE25D96E000EAF21DA6EDECF04F0DECF88
:1016D40005F0DECF06F0DECF07F07AC400F07BC45D
:1016E40001F07CC402F07DC403F0B8EC05F000C046
:1016F400A6F401C0A7F402C0A8F403C0A9F4140E10
:101704000401B025E96E000EB121EA6EAAC400F00E
:10171400ABC401F00036009001360036009001366B
:101724000050EE24B26F0150EE20B36FA6C400F057
:10173400A7C401F0A8C402F0A9C403F076EC06F033
:10174400B2C4E1FFB3C4E2FF00C0E6FF01C0E6FF9C
:0A17540002C0E6FF03C0E6FF12002A
:10175E0089C48BF48AC48CF4280E040189258D6FFC
:10176E00000E8A218E6F89C4E1FF8AC4E2FF25C074
:10177E00E6FF26C0E6FF27C0E6FF28C0E6FF040E00
:10178E008B25E16E000E8C21E26E82C4E6FF83C4CF
:10179E00E6FF84C4E6FF85C4E6FF080E8B25E16EE6
:1017AE00000E8C21E26E76C4E6FF77C4E6FF78C4A5
:1017BE00E6FF79C4E6FF0C0E8B25E16E000E8C2140
:1017CE00E26E21C0E6FF22C0E6FF23C0E6FF24C082
:1017DE00E6FF100E8B25E16E000E8C21E26E7EC4AC
:1017EE00E6FF7FC4E6FF80C4E6FF81C4E6FF8DC43A
:1017FE00E1FF8EC4E2FFE66AE66AE66AE66A040E76
:10180E008D25E16E000E8E21E26EE66AE66AE66ACC
:10181E00E66A080E8D25E16E000E8E21E26EE66AF6
:10182E00E66AE66AE66A0D0E8D25E16E000E8E21E1
:10183E00E26EE66A0C0E8D25E16E000E8E21E26ED2
:10184E00E66A0E0E8D25E16E000E8E21E26E020E00
:10185E00E66E8BC4E9FF8CC4EAFFEECF00F0EECF4C
:10186E0001F0EECF02F0EECF03F002C0E1FF03C0B5
:0C187E00E2FFE66A31EC02F0006A1200A2
:10188A0016D087C498F488C499F41EDC1BD087C488
:10189A0098F488C499F4E6EC07F014D087C498F455
:1018AA0088C499F4F3DC0ED0010E006E0BD004014B
:1018BA008651000AE6E08651010AE9E08651020AE9
:0618CA00EDE0F2D7120070
:1018D00086C498F487C499F488C49AF412EC07F08B
:0218E0001200F4
:1018E2008BC491F48CC492F4140E04018B25006E07
:1018F200000E8C21016E280E8B25936F000E8C2119
:10190200946F0C0E0024E96E000E0120EA6EEECFF9
:1019120098F4EECF99F4EECF9AF4EECF9BF4100E3A
:101922000024E96E000E0120EA6EEECF9CF4EECFA9
:101932009DF4EECF9EF4EECF9FF4080E0024E96EE4
:10194200000E0120EA6EEECFA0F4EECFA1F4EECFAE
:10195200A2F4EECFA3F47AEC07F000C08DF401C03C
:101962008EF402C08FF403C090F400C004F001C0F2
:1019720005F002C006F003C007F0043604900536F5
:101982000636073607508A5D08E10650895D05E193
:101992000550885D02E10450875D1BE287C498F41C
:1019A20088C499F489C49AF48AC49BF49B339A3309
:1019B200993398339B9F87C49CF488C49DF489C44F
:1019C2009EF48AC49FF491C4A0F492C4A1F4E9DC09
:1019D20015D08DC498F48EC499F48FC49AF490C42F
:1019E2009BF487C49CF488C49DF489C49EF48AC481
:1019F2009FF491C4A0F492C4A1F4D3DC0C0E9325FD
:101A0200016E000E9421026E01C0E1FF02C0E2FFEE
:101A120086C4E6FF01C0E9FF02C0EAFFEE50000AF9
:101A220023E1040E9325E16E000E9421E26E93C42D
:101A3200E9FF94C4EAFFEECF00F0EECF01F0EECF63
:101A420002F0EECF03F0875100268851012289511E
:101A520002228A51032200C0E6FF01C0E6FF02C053
:101A6200E6FF03C0E6FF22D0040E9325E16E000ECE
:101A72009421E26E93C4E9FF94C4EAFFEECF00F032
:101A8200EECF01F0EECF02F0EECF03F08751005E11
:101A92008851015A8951025A8A51035A00C0E6FFFD
:101AA20001C0E6FF02C0E6FF03C0E6FF006A1200C3
:101AB20087C48AF488C48BF4080E04018725E96E72
:101AC200000E8821EA6EEECF00F0EECF01F0EECFED
:101AD20002F0EECF03F002C0E1FF03C0E2FF86C4D2
:101AE200E6FF31EC02F0E5D00C0E04018A25E96E26
:101AF200000E8B21EA6EEECF00F0EECF01F0EECFBA
:101B020002F0EECF03F002C0E1FF03C0E2FFE66A9B
:101B120031EC02F0100E04018A25E96E000E8B21D1
:101B2200EA6EEECF00F0EECF01F0EECF02F0EECF94
:101B320003F002C0E1FF03C0E2FFE66A31EC02F00B
:101B4200C9D00C0E04018A25E96E000E8B21EA6EC3
:101B5200EECF00F0EECF01F0EECF02F0EECF03F0C9
:101B620002C0E1FF03C0E2FF010EE66E31EC02F0BB
:101B7200100E04018A25E96E000E8B21EA6EEECF6B
:101B820000F0EECF01F0EECF02F0EECF03F002C094
:101B9200E1FF03C0E2FFE66A31EC02F09BD00C0EDB
:101BA20004018A25E96E000E8B21EA6EEECF00F069
:101BB200EECF01F0EECF02F0EECF03F002C0E1FF74
:101BC20003C0E2FFE66A31EC02F0100E04018A253E
:101BD200E96E000E8B21EA6EEECF00F0EECF01F03F
:101BE200EECF02F0EECF03F002C0E1FF03C0E2FF4E
:101BF200010EE66E31EC02F06DD00C0E04018A2566
:101C0200E96E000E8B21EA6EEECF00F0EECF01F00E
:101C1200EECF02F0EECF03F002C0E1FF03C0E2FF1D
:101C2200010EE66E31EC02F0100E04018A25E96E17
:101C3200000E8B21EA6EEECF00F0EECF01F0EECF78
:101C420002F0EECF03F002C0E1FF03C0E2FF010E9B
:101C5200E66E31EC02F03ED00C0E04018A25E96EEC
:101C6200000E8B21EA6EEECF00F0EECF01F0EECF48
:101C720002F0EECF03F002C0E1FF03C0E2FFE66A2A
:101C820031EC02F0100E04018A25E96E000E8B2160
:101C9200EA6EEECF00F0EECF01F0EECF02F0EECF23
:101CA20003F002C0E1FF03C0E2FFE66A31EC02F09A
:101CB20011D004018951000AD8B416D78951010AFA
:101CC200D8B43FD78951020AD8B469D78951030AD7
:061CD20094E0C2D71200ED
:101CD800280E04018625006E000E8721016E00C0C3
:101CE80088F401C089F4370E86258A6F000E872193
:101CF8008B6F140E86258C6F000E87218D6F0D0E4D
:101D08000024E96E000E0120EA6EEE52D8B41ED20D
:101D1800080E8825E96E000E8921EA6EEECF09F0DB
:101D2800EECF0AF0EECF0BF0EECF0CF0140E8A25B2
:101D3800006E000E8B21016E040E8A25E96E000EDE
:101D48008B21EA6EEECF05F0EECF06F0EECF07F06E
:101D5800EECF08F000C0E9FF01C0EAFFEECF03F0C4
:101D6800EECF04F005C000F006C001F00036009088
:101D7800013600360090013600500324D96E015018
:101D88000420DA6EDECF01F0DECF02F0DECF03F002
:101D9800DECF04F00C50041808E10B50031805E1DD
:101DA8000A50021802E109500118D8A4CFD18AC4F8
:101DB800E9FF8BC4EAFFEECF05F0EECF06F0EECFD9
:101DC80007F0EECF08F0080E8A25D96E000E8B2199
:101DD800DA6EDECF01F0DECF02F0DECF03F0DECF29
:101DE80004F00450085C08E10350075C05E1025068
:101DF800065C02E10150055C22E2040E8A25046EAD
:101E0800000E8B21056E04C0E9FF05C0EAFF010E34
:101E1800EE24006E000EEE20016E000EEE20026E23
:101E2800000EEE20036E04C0E1FF05C0E2FF00C013
:101E3800E6FF01C0E6FF02C0E6FF03C0E6FF8AC472
:101E4800E9FF8BC4EAFFEECF05F0EECF06F0EECF48
:101E580007F0EECF08F00C0E8A25D96E000E8B2104
:101E6800DA6EDECF01F0DECF02F0DECF03F0DECF98
:101E780004F00850045C08E10750035C05E10650D3
:101E8800025C02E10550015C24E2040E8A25046E1E
:101E9800000E8B21056E04C0E9FF05C0EAFFEECFF6
:101EA80000F0EECF01F0EECF02F0EECF03F0010E1E
:101EB800005E000E015A025A035A04C0E1FF05C031
:101EC800E2FF00C0E6FF01C0E6FF02C0E6FF03C074
:101ED800E6FF0C0E8825E96E000E8921EA6EEE50A9
:101EE800000A1FE188C4E9FF89C4EAFFEECF00F0C9
:101EF800EECF01F0EECF02F0EECF03F0010E002698
:101F0800000E01220222032288C4E1FF89C4E2FFF5
:101F180000C0E6FF01C0E6FF02C0E6FF03C0E6FF1F
:101F28001ED088C4E9FF89C4EAFFEECF00F0EECFE7
:101F380001F0EECF02F0EECF03F0010E005E000ECE
:101F4800015A025A035A88C4E1FF89C4E2FF00C05B
:101F5800E6FF01C0E6FF02C0E6FF03C0E6FF8AC451
:101F6800E9FF8BC4EAFFEECF00F0EECF01F0EECF31
:101F780002F0EECF03F0010E0026000E012202222D
:101F880003228AC4E1FF8BC4E2FF00C0E6FF01C060
:101F9800E6FF02C0E6FF03C0E6FF0C0E8825E96EE7
:101FA800000E8921EA6EEECF98F486C499F487C4AE
:101FB8009AF4ECEC08F0080E04018825E16E000E96
:101FC8008921E26EE66AE66AE66AE66A88C4E9FF9B
:101FD80089C4EAFFEECF05F0EECF06F0EECF07F0AA
:101FE800EECF08F0040E8825D96E000E8921DA6E2E
:101FF800DECF01F0DECF02F0DECF03F0DECF04F05B
:102008000850041808E10750031805E106500218A3
:1020180002E105500118D8A499D00C0E8825E96E64
:10202800000E8921EA6EEE50000A2FE1040E882581
:10203800E16E000E8921E26E88C4E9FF89C4EAFFD7
:10204800EECF04F0EECF05F0EECF06F0EECF07F0BE
:102058008AC4E9FF8BC4EAFFEECF00F0EECF01F0AF
:10206800EECF02F0EECF03F0045000260550012217
:10207800065002220750032200C0E6FF01C0E6FF17
:1020880002C0E6FF03C0E6FF36D0040E8825E16EE5
:10209800000E8921E26E88C4E9FF89C4EAFFEECF09
:1020A80008F0EECF09F0EECF0AF0EECF0BF08AC4BD
:1020B800E9FF8BC4EAFFEECF04F0EECF05F0EECFD8
:1020C80006F0EECF07F008C000F009C001F00AC022
:1020D80002F00BC003F00450005E0550015A065090
:1020E800025A0750035A00C0E6FF01C0E6FF02C0CB
:1020F800E6FF03C0E6FF0D0E8825E16E000E89217C
:10210800E26EE66A080E8825E16E000E8921E26E0D
:10211800E66AE66AE66AE66A0E0E8825E16E000E51
:102128008921E26E020EE66E8AC4E1FF8BC4E2FFEB
:10213800E66AE66AE66AE66A040E8A25E16E000E39
:102148008B21E26EE66AE66AE66AE66A88C4E9FF17
:1021580089C4EAFFEECF05F0EECF06F0EECF07F028
:10216800EECF08F0040E8C25D96E000E8D21DA6EA4
:10217800DECF01F0DECF02F0DECF03F0DECF04F0D9
:102188000850045C08E10750035C05E10650025C56
:1021980002E10550015C25E388C4E9FF89C4EAFF30
:1021A800EECF05F0EECF06F0EECF07F0EECF08F059
:1021B8008CC4E9FF8DC4EAFFEECF01F0EECF02F048
:1021C800EECF03F0EECF04F00450085C08E10350B2
:1021D800075C05E10250065C02E10150055C01E381
:1021E800D9D00C0E8825E96E000E8921EA6EEE50D2
:1021F800000A4FE1040E88250C6E000E89210D6E31
:1022080088C4E9FF89C4EAFFEECF08F0EECF09F0F1
:10221800EECF0AF0EECF0BF00CC0E9FF0DC0EAFFDD
:10222800EECF04F0EECF05F0EECF06F0EECF07F0DC
:102238000850045E0950055A0A50065A0B50075AAE
:102248008AC4E9FF8BC4EAFFEECF00F0EECF01F0BD
:10225800EECF02F0EECF03F0045000260550012225
:102268000650022207500322085000260950012276
:102278000A5002220B5003220CC0E1FF0DC0E2FFFE
:1022880000C0E6FF01C0E6FF02C0E6FF03C0E6FFAC
:1022980056D0040E88250C6E000E89210D6E88C458
:1022A800E9FF89C4EAFFEECF08F0EECF09F0EECFE0
:1022B8000AF0EECF0BF00CC0D9FF0DC0DAFF08C052
:1022C80004F009C005F00AC006F00BC007F0DE50A4
:1022D800045EDE50055ADE50065ADE50075A8AC49C
:1022E800E9FF8BC4EAFFEECF00F0EECF01F0EECFAE
:1022F80002F0EECF03F000500426015005220250F0
:1023080006220350072208C000F009C001F00AC0E5
:1023180002F00BC003F00450005E0550015A06504D
:10232800025A0750035A0CC0E1FF0DC0E2FF00C07B
:10233800E6FF01C0E6FF02C0E6FF03C0E6FF0D0EA0
:102348008825E16E000E8921E26EE66A080E88256E
:10235800E16E000E8921E26EE66AE66AE66AE66ADE
:102368000E0E8825E16E000E8921E26E030EE66EE0
:102378008AC4E1FF8BC4E2FFE66AE66AE66AE66AB7
:10238800040E8A25E16E000E8B21E26EE66AE66A8B
:06239800E66AE66A12008D
:10239E00280E04018625026E000E8721036E370E6D
:1023AE008625006E000E8721016E00C004F001C06C
:1023BE0005F000C0E1FF01C0E2FFE66AE66AE66AE8
:1023CE00E66A040E0424E16E000E0520E26EE66A53
:1023DE00E66AE66AE66A0E0E0224E16E000E03203D
:1023EE00E26EE66A080E0224E16E000E0320E26E33
:1023FE00E66AE66AE66AE66A0D0E0224E16E000EF1
:0A240E000320E26E010EE66E1200DC
:10241800140E04018E25016E000E8F21026E895163
:10242800FF0A08E18851FF0A05E18751FF0A02E126
:102438008651FF0A0EE0000E006E8D1908E100506B
:102448008C1905E100508B1902E18A51000A01E05C
:1024580003D0010E006E2AD08D51895D08E18C51A0
:10246800885D05E18B51875D02E18A51865D03E352
:10247800010E006E1BD001C0E1FF02C0E2FF86C45E
:10248800E6FF87C4E6FF88C4E6FF89C4E6FF040EBA
:102498000124E16E000E0220E26E8AC4E6FF8BC4BE
:0E24A800E6FF8CC4E6FF8DC4E6FF006A12005A
:1024B600140E04019025016E000E9121026E370E56
:1024C6009025036E000E9121046E000E006E891990
:1024D60008E10050881905E10050871902E186518C
:1024E600000A03E1010E006E61D001C0E1FF02C0E7
:1024F600E2FFE66AE66AE66AE66A040E0124E16E2F
:10250600000E0220E26EFF0EE66EFF0EE66EFF0E76
:10251600E66EFF0EE66E080E0124E16E000E022046
:10252600E26E000EE66E000EE66E000EE66E7F0EA2
:10253600E66E0C0E0124E16E000E0220E26E000E25
:10254600E66E000EE66E000EE66E7F0EE66E100E6E
:102556000124E16E000E0220E26E000EE66E000E11
:10256600E66E480EE66E850EE66E100E0324E16EEC
:10257600000E0420E26E86C4E6FF87C4E6FF88C428
:10258600E6FF89C4E6FF140E0324E16E000E042064
:10259600E26E8AC4E6FF8BC4E6FF8CC47AF48DC46F
:0E25A6007BF48EC47CF48FC47DF4006A1200B6
:1025B400140E04019225946F000E9321956F370E2B
:1025C4009225966F000E9321976F86C404F087C4FA
:1025D40005F088C406F089C407F0006A016A026A3B
:1025E400036AD2EC02F0010ED8A4000E006E005271
:1025F40019E186C404F087C405F088C406F089C4D0
:1026040007F07AC400F07BC401F07CC402F07DC4FE
:1026140003F051EC05F0010ED8B0000E006E00522C
:1026240001E103D0010E006EADD08AC404F08BC466
:1026340005F08CC406F08DC407F0006A016A026AD2
:10264400036AD2EC02F0010ED8A4000E006E005210
:1026540019E18AC404F08BC405F08CC406F08DC45F
:1026640007F07AC400F07BC401F07CC402F07DC49E
:1026740003F051EC05F0010ED8B0000E006E0052CC
:1026840001E103D0010E006E7DD086C404F087C43E
:1026940005F088C406F089C407F08AC400F08BC42E
:1026A40001F08CC402F08DC403F051EC05F0010E6E
:1026B400D8B0000E006E005203E0010E006E62D02E
:1026C40086C498F487C499F488C49AF489C49BF4A2
:1026D4008AC49CF48BC49DF48CC49EF48DC49FF472
:1026E4008EC4A0F48FC4A1F490C4A2F491C4A3F442
:1026F4007AEC07F0100E9625D96E000E9721DA6E4B
:10270400DECF05F0DECF06F0DECF07F0DECF08F037
:102714000350085C08E10250075C05E10150065CC7
:1027240002E10050055C03E2020E006E2BD00C0E99
:102734009425E16E000E9521E26E86C4E6FF87C4FF
:10274400E6FF88C4E6FF89C4E6FF100E9425E16E17
:10275400000E9521E26E8AC4E6FF8BC4E6FF8CC4AA
:10276400E6FF8DC4E6FF080E9425E16E000E952168
:10277400E26E8EC4E6FF8FC4E6FF90C4E6FF91C408
:06278400E6FF006A1200EE
:10278A000401866B070E876F886B45EC0CF0040119
:10279A00866B876B886B45EC0CF00401866B010E27
:1027AA00876F886B45EC0CF00401866B020E876F0D
:1027BA00886B45EC0CF00401866B060E876F886BFC
:1027CA0045EC0CF0E9EC02F0090E0B6E1E0E0C6ED5
:1027DA00E40E0D6E0D2EFED70C2EFCD70B2EFAD75B
:0427EA0000001200D9
:1027EE00280E0401B725006E000EB821016E00C040
:1027FE0006F001C007F00D0E0024E96E000E012058
:10280E00EA6EEE5222E0080E0624046E000E072039
:10281E00056E04C0E9FF05C0EAFF010EEE24006E4E
:10282E00000EEE20016E000EEE20026E000EEE2067
:10283E00036E04C0E1FF05C0E2FF00C0E6FF01C069
:0C284E00E6FF02C0E6FF03C0E6FF120038
:10285A00290E0401866F040E876F9CDD5E5307E024
:10286A00290E866F040E876F6CEC0EF0F7D7A30E55
:10287A000B6E570E0C6E020E0D6E0D2EFED70C2E21
:0A288A00FCD70B2EFAD70000120055
:102894008A0E0401866F290E876F000E886F68EC1C
:1028A4000CF08A0E866F290E876F000E886F290E32
:1028B400896F040E8A6FAFEC0BF0000E0401866F73
:1028C400010E876F000E886F896F290E8A6F000EC4
:1028D4008B6F000E8C6F000E8D6F7A0E8E6F880ECC
:1028E4008F6F290E906F040E916FE3DD866B876BFB
:1028F400886B896BFF0E8A6FFF0E8B6FFF0E8C6FD8
:10290400FF0E8D6F290E8E6F040E8F6F83DD000E08
:10291400866F000E876F200E886F820E896F000EFF
:102924008A6F000E8B6F480E8C6F850E8D6FCD0EE7
:102934008E6FCC0E8F6F4C0E906F7B0E916F290EA5
:10294400926F040E936F34DE000E866F290E876F2C
:10295400040E886F000E896F59EC0DF0010E04010E
:10296400866FC80E876F000E886F896F8A6F290E75
:0C2974008B6F040E8C6F71EC0CF01200E5
:0A29800004DF88DF6ADFFED7FFD70F
:10298A004002B6044E02B6040C01B6046402B60450
:10299A007202B604FE00B604F000B6043601B604AC
:1029AA004401B6041A01B6042801B6048000B6042C
:1029BA00FFFFFFFFFFFFFFFFFFFFFFFFFFFFFFFF1D
:1029CA00FFFFFFFFFFFFFFFFFFFFFFFFFFFFFFFF0D
:1029DA00FFFFFFFFFFFFFFFFFFFFFFFFFFFFFFFFFD
:020000040030CA
:0E00000015137F7CF98B91FFFFC0FFE0FF40DE
:00000001FF
